:020000040800F2
:1000000000000220C9040008CD080008CF0800083D
:10001000D1080008D3080008D50800080000000037
:10002000000000000000000000000000D7080008E9
:10003000D908000800000000DB080008DD080008FF
:100040001905000819050008190500081905000818
:100050001905000819050008190500081905000808
:1000600019050008190500081905000819050008F8
:1000700019050008190500081905000819050008E8
:1000800019050008190500081905000819050008D8
:1000900019050008190500081905000819050008C8
:1000A00019050008190500081905000819050008B8
:1000B00019050008190500081905000819050008A8
:1000C0001905000819050008190500081905000898
:1000D0001905000819050008190500081905000888
:1000E0001905000819050008190500081905000878
:1000F0001905000819050008190500081905000868
:100100001905000819050008190500081905000857
:100110001905000819050008190500081905000847
:100120001905000819050008190500081905000837
:100130001905000819050008190500081905000827
:100140001905000819050008190500081905000817
:100150001905000819050008190500081905000807
:1001600019050008190500081905000819050008F7
:10017000190500081905000819050008000000000D
:0801800019050008190500082B
:1001880010B5054C237833B9044B13B10448AFF3C9
:1001980000800123237010BD0C0000200000000027
:1001A800D417000808B5034B1BB103490348AFF344
:1001B800008008BD0000000010000020D4170008CF
:1001C80053B94AB9002908BF00281CBF4FF0FF31B6
:1001D8004FF0FF3000F072B9ADF1080C6DE904CEB4
:1001E80000F006F8DDF804E0DDE9022304B070470A
:1001F8002DE9F047089E04468846002B4BD18A42D9
:10020800154667D9B2FA82F24AB1C2F1200701FA5B
:1002180002F320FA07F7954047EA030894404FEAAB
:10022800154E230CB8FBFEF71FFA85FC0EFB17884A
:1002380043EA084307FB0CF1994209D9EB1807F187
:10024800FF3080F01B81994240F21881023F2B4415
:100258005B1AA4B2B3FBFEF00EFB103344EA03446E
:1002680000FB0CFCA44509D92C1900F1FF3380F0E0
:100278000781A44540F2048102382C4440EA074033
:10028800A4EB0C0400271EB1D4400023C6E90043A8
:100298003946BDE8F0878B4209D9002E00F0EB8083
:1002A8000027C6E9000138463946BDE8F087B3FAA9
:1002B80083F7002F47D18B4202D3824200F2FA80A3
:1002C800841A61EB030301209846002EE0D0C6E9AA
:1002D8000048DDE702B9FFDEB2FA82F2002A40F0F8
:1002E8008F80491B4FEA154E1FFA85F80127B1FB8D
:1002F800FEFC230C0EFB1C1143EA014308FB0CF126
:10030800994207D9EB180CF1FF3002D2994200F25A
:10031800CD808446591AA3B2B1FBFEF00EFB10142F
:1003280043EA044408FB00F8A04507D92C1900F15A
:10033800FF3302D2A04500F2B6801846A4EB0804A9
:1003480040EA0C409FE7C7F1200CBB4022FA0CFEA4
:100358004EEA030E01FA07F420FA0CF521FA0CF321
:100368004FEA1E482543B3FBF8F92C0C08FB193358
:100378001FFA8EFA44EA034309FB0AF49C4202FA84
:1003880007F200FA07F10BD91EEB030309F1FF305E
:1003980080F087809C4240F28480A9F1020973446E
:1003A8001B1BADB2B3FBF8F008FB103345EA03445E
:1003B80000FB0AFAA24508D91EEB040400F1FF333A
:1003C8006BD2A24569D90238744440EA0940A0FBBF
:1003D8000289A4EB0A044C45C2464B4654D351D07B
:1003E800002E69D0B1EB0A0564EB030404FA0CFC97
:1003F800FD40FC404CEA0505C6E90054002747E7E4
:10040800C2F1200320FA03F7954001FA02F021FA1D
:1004180003F34FEA154E3843010CB3FBFEF71FFAFE
:1004280085F80EFB173341EA034107FB08F38B42BB
:1004380004FA02F407D9691807F1FF3C2FD28B425E
:100448002DD9023F2944CB1A81B2B3FBFEF00EFB33
:10045800103341EA034100FB08F38B4207D96918BE
:1004680000F1FF3C17D28B4215D902382944C91A2A
:1004780040EA07473BE73746304609E70746E7E6DD
:100488001846FBE64145ABD2B8EB020A69EB0E020F
:1004980001381346A4E76046E9E7184695E767463A
:1004A800D1E781467CE702382C4447E7ACF1020CDF
:1004B8002B442FE7384608E73746E9E6704700BF80
:1004C800DFF834D0002103E00C4B5B584350043173
:1004D8000B480C4B42189A42F6D30B4A02E0002311
:1004E80042F8043B094B9A42F9D300F0F7F901F0BE
:1004F80041F900F051F97047000002201418000873
:10050800000000200C0000200C00002068010020E2
:10051800FEE708B500F04EF908BD70472DE9F04F29
:100528008DB000240794089409940A940B940194BC
:10053800604B1A6B42F010021A631A6B02F0100239
:100548000192019A02941A6B42F004021A631A6B20
:1005580002F004020292029A03941A6B42F080029B
:100568001A631A6B02F080020392039A04941A6BBE
:1005780042F001021A631A6B02F001020492049A13
:1005880005941A6B42F002021A631A6B02F0020217
:100598000592059A06941A6B42F008021A631B6BBF
:1005A80003F008030693069BDFF81C812246082106
:1005B800404600F05BFBDFF814A1012211465046CB
:1005C80000F054FBDFF8089122464FF2100148462C
:1005D80000F04CFB082307930125089509940A9419
:1005E80007A9404600F05EFA0795089509940A9411
:1005F80007A9504600F056FA07952F4B089309941F
:100608002E4F07A9384600F04DFA1023079302260B
:10061800089609940A944FF0060BCDF82CB007A958
:10062800384600F03FFA042307930894099407A971
:10063800234800F037FA4FF21003079308950994FE
:100648000A9407A9484600F02DFA4FF4A4530793DB
:10065800089609940A94CDF82CB007A9504600F0E2
:1006680021FA4FF4007307930894099407A93846B0
:1006780000F018FA4FF4E0530793089609940A9487
:100688000A230B9307A9384600F00CFA2023079396
:100698000894099407A9484600F004FA0796094BFC
:1006A8000893099407A9404600F0FCF90DB0BDE88D
:1006B800F08F00BF00380240000011100000024017
:1006C800000402400000121000100240000802401E
:1006D800000C024008B50348034B036000F0D0F952
:1006E80008BD00BF7C0000200030024070B598B003
:1006F800302200210DEB020001F060F8002407947D
:10070800089409940A940B94039404940594069409
:1007180001941F4B1A6C42F080521A641B6C03F050
:1007280080530193019B02941A4B1A6842F4804249
:100738001A601B6803F480430293029B02250C9500
:1007480001260F96102310931295139408231493DF
:100758003223159304231693072317930CA800F04C
:100768008BFA0F230793089509944FF4A0530A9323
:100778004FF480530B93214607A800F0B5FC03966D
:10078800C0230493059503A800F080FD18B070BD40
:10079800003802400070004008B500F0E9F8FFF7A3
:1007A800A5FFFFF7BBFEFFF795FFFFF7B2FEFFF7C8
:1007B800B4FEFCE708B50848084B03604FF4E13382
:1007C800436000238360C36003610C22426183613C
:1007D800C36100F09FFF08BDDC000020004400401A
:1007E80000B583B0002100910C4B5A6C42F4804252
:1007F8005A645A6C02F480420092009A01911A6C71
:1008080042F080521A641B6C03F080530193019BE1
:10081800072000F0D9F803B05DF804FB0038024067
:100828000268094B9A4200D0704782B000230193B6
:10083800064B1A6B42F480521A631B6B03F4805305
:100848000193019B02B0704700300240003802401B
:1008580000B589B000230393049305930693079387
:100868000268164B9A4202D009B05DF804FB0021D9
:10087800019103F5FA331A6C42F400321A641A6CC7
:1008880002F400320192019A02911A6B42F00102BD
:100898001A631B6B03F001030293029B0C2303935F
:1008A8000223049301230593032306930723079345
:1008B80003A9034800F0F6F8D6E700BF004400405B
:1008C800000002407047FEE7FEE7FEE7FEE77047DC
:1008D8007047704708B500F065F808BD0F49D1F8B2
:1008E800883043F47003C1F888300D4B1A6842F021
:1008F80001021A60002098601A6822F0847222F4BB
:1009080080321A60074A5A601A6822F480221A60F4
:10091800D8604FF000638B60704700BF00ED00E0C7
:10092800003802401030002410B504460E4B1878E9
:100938004FF47A73B3FBF0F30C4A1068B0FBF3F092
:1009480000F088F868B90F2C01D901200AE00022CC
:1009580021464FF0FF3000F049F8034B5C6000205F
:1009680000E0012010BD00BF0400002000000020AE
:1009780008B50B4B1A6842F400721A601A6842F400
:1009880080621A601A6842F480721A60032000F0CC
:100998001BF80020FFF7C8FFFFF722FF002008BD63
:1009A800003C0240034A1168034B1B780B44136058
:1009B800704700BF6401002004000020014B186844
:1009C800704700BF64010020074AD36823F4E0633E
:1009D8001B041B0C000200F4E060184340F0BF60E9
:1009E80040F40030D060704700ED00E030B4174BA1
:1009F800DB68C3F30223C3F10704042C28BF0424D3
:100A08001D1D062D18D9033B4FF0FF3505FA04F4D8
:100A180021EA0401994005FA03F322EA0303194382
:100A280000280BDB0901C9B200F1604000F5614004
:100A380080F8001330BC70470023E5E700F00F0092
:100A48000901C9B2024B1954F4E700BF00ED00E0F8
:100A580014ED00E00138B0F1807F0AD2064B5860EF
:100A6800064AF02182F823100020986007221A60B5
:100A780070470120704700BF10E000E000ED00E083
:100A880068B110B5044643792BB102236371012381
:100A98006371002010BD0371FFF7C2FEF5E7012066
:100AA8007047000000230F2B00F2D780F0B482B00B
:100AB80039E0072200E00022B2403A430234674E90
:100AC80046F82420664A1468EA4302EA04064F6896
:100AD80017F4803F01D045EA0406614C266064683B
:100AE80002EA04064F6817F4003F01D045EA0406FD
:100AF8005B4C6660A46802EA04064F6817F4801F1E
:100B080001D045EA0406564CA660E46822404E68C7
:100B180016F4001F01D045EA0402514CE26001338B
:100B28000F2B00F2978001229A400C6804EA020514
:100B3800AA42F4D14C68022C01D0122C10D1DE0844
:100B4800083650F826C003F00704A7000F24BC405D
:100B58002CEA040C0C69BC4044EA0C0440F826401A
:100B680004685F000326BE40F64306EA040C4C689E
:100B780004F00304BC4044EA0C0404604C6804F12B
:100B8800FF3CBCF1010F03D9112C01D0122C10D15C
:100B9800846806EA040CCC68BC4044EA0C0484600F
:100BA800446824EA02024C68C4F300149C401443CD
:100BB8004460C26816408A68BA403243C2604A68D4
:100BC80012F0805FABD000220192264A546C44F4A4
:100BD80080445464526C02F480420192019A9C0849
:100BE800A61C1E4A52F8267003F0030296000F2234
:100BF800B24027EA02071C4A90423FF45CAF02F574
:100C0800806290421AD002F58062904218D002F5B4
:100C18008062904216D002F58062904214D002F5AC
:100C28008062904212D002F58062904210D002F5A4
:100C3800806290423FF43DAF08223DE701223BE746
:100C4800022239E7032237E7042235E7052233E792
:100C5800062231E702B0F0BC704770470038014007
:100C6800003C0140003802400000024012B909046B
:100C78008161704781617047002800F0BB8170B5C1
:100C880082B00446036813F0010F3BD0A74B9B6862
:100C980003F00C03042B2CD0A44B9B6803F00C032B
:100CA800082B21D06368B3F5803F4FD0B3F5A02F50
:100CB80052D09E4B1A6822F480321A601A6822F4C5
:100CC80080221A606368002B50D0FFF777FE054634
:100CD800964B1B6813F4003F14D1FFF76FFE401BBF
:100CE8006428F5D903208AE1904B5B6813F4800FE0
:100CF800D8D08E4B1B6813F4003F03D06368002BD9
:100D080000F07A81236813F0020F55D0874B9B6857
:100D180013F00C0F3ED0854B9B6803F00C03082B97
:100D280033D0E368002B68D0814B01221A60FFF7AB
:100D380045FE05467D4B1B6813F0020F54D1FFF7A3
:100D48003DFE401B0228F5D9032058E1774A136875
:100D580043F480331360B5E7744B1A6842F4802279
:100D68001A601A6842F480321A60ABE7FFF726FE71
:100D780005466E4B1B6813F4003FC3D0FFF71EFEF9
:100D8800401B6428F5D9032039E1684B5B6813F4EC
:100D9800800FC6D1654B1B6813F0020F04D0E368BF
:100DA800012B01D001202AE1604A136823F0F803DF
:100DB800216943EAC1031360236813F0080F40D088
:100DC800636963B35B4B01221A60FFF7F7FD0546C1
:100DD800564B5B6F13F0020F33D1FFF7EFFD401B4B
:100DE8000228F5D903200AE1504A136823F0F803D2
:100DF800216943EAC1031360DEE74D4B00221A6004
:100E0800FFF7DCFD0546494B1B6813F0020FD3D0F2
:100E1800FFF7D4FD401B0228F5D90320EFE0454B2E
:100E280000221A60FFF7CAFD0546404B5B6F13F0BE
:100E3800020F06D0FFF7C2FD401B0228F5D9032098
:100E4800DDE0236813F0040F79D0384B1B6C13F0E6
:100E5800805F33D100230193344B1A6C42F08052E7
:100E68001A641B6C03F080530193019B0125324BDC
:100E78001B6813F4807F23D0A368012B34D0052B83
:100E880038D02A4B1A6F22F001021A671A6F22F023
:100E980004021A67A368002B36D0FFF78FFD0646B9
:100EA800224B1B6F13F0020F48D1FFF787FD801B01
:100EB80041F288339842F3D90320A0E00025D6E711
:100EC8001D4A136843F480731360FFF777FD0646E5
:100ED800194B1B6813F4807FCED1FFF76FFD801B81
:100EE8000228F5D903208AE0104A136F43F0010362
:100EF8001367CFE70D4B1A6F42F004021A671A6F97
:100F080042F001021A67C5E7FFF758FD0646074B8E
:100F18001B6F13F0020F11D0FFF750FD801B41F239
:100F280088339842F3D9032069E000BF00380240B3
:100F380000004742800E474200700040E5B9A369AF
:100F4800002B5BD0304A926802F00C02082A58D075
:100F5800022B17D02D4B00221A60FFF72FFD0446F5
:100F6800294B1B6813F0007F42D0FFF727FD001BB9
:100F78000228F5D9032042E0234A136C23F080535A
:100F88001364DCE7214B00221A60FFF717FD0546C2
:100F98001D4B1B6813F0007F06D0FFF70FFD401BA9
:100FA8000228F5D903202AE0E369226A1343626A1A
:100FB80043EA8213A26A5208013A43EA0243E26A08
:100FC80043EA0263104A5360104B01221A60FFF78C
:100FD800F5FC04460C4B1B6813F0007F06D1FFF7A5
:100FE800EDFC001B0228F5D9032008E0002006E0EC
:100FF800002004E001207047012000E0002002B03A
:1010080070BD0120FBE700BF003802406000474286
:10101800324B9B6803F00C03042B5CD0082B01D0E7
:101028002F4870472DE9F04B2C4B5A6802F03F02CD
:101038005B6813F4800F2BD0284B5B68C3F38813CD
:101048001E4600275C010025E41A65EB0705A90187
:1010580041EA9461A001001B61EB0501CB0043EA62
:101068005073C400A01943EB07014B0243EAD05365
:101078004402204619460023FFF7A2F8174B5B6885
:10108800C3F3014301335B00B0FBF3F0BDE8F08B21
:10109800124B5B68C3F388131E4600275C010025CA
:1010A800E41A65EB0705A90141EA9461A001001B58
:1010B80061EB0501CB0043EA5073C400A01943EB70
:1010C80007018B0243EA9053840220461946002305
:1010D800FFF776F8D2E70348704700BF00380240B0
:1010E8000024F40000127A00002800F09D8070B5FA
:1010F80004464F4B1B6803F00F038B4209D2CBB257
:101108004B4A1370136803F00F038B4201D0012080
:1011180070BD236813F0020F17D013F0040F04D02A
:10112800444A936843F4E0539360236813F0080F2C
:1011380004D0404A936843F4604393603D4A9368FF
:1011480023F0F003A068034393600D46236813F06F
:10115800010F32D06368012B21D09A1E012A25D9AC
:10116800344A126812F0020F60D032498A6822F0BD
:10117800030213438B60FFF721FC06462D4B9B6847
:1011880003F00C036268B3EB820F16D0FFF716FC6E
:10119800801B41F288339842F0D90320B8E7254AEA
:1011A800126812F4003FE0D10120B1E7214A126829
:1011B80012F0007FD9D10120AAE71D4B1B6803F06C
:1011C8000F03AB4209D9EAB2194B1A701B6803F036
:1011D8000F03AB4201D001209AE7236813F0040FF4
:1011E80006D0144A936823F4E053E1680B439360F4
:1011F800236813F0080F07D00E4A936823F460435E
:10120800216943EAC1039360FFF702FF094B9B681A
:10121800C3F30313084AD35CD840084B1860002076
:10122800FFF782FB002073E70120704701206FE77A
:10123800003C024000380240EC1700080000002083
:10124800014B1868704700BF0000002008B5FFF781
:10125800F7FF044B9B68C3F38223034AD35CD8404F
:1012680008BD00BF00380240FC17000808B5FFF7AA
:10127800E7FF044B9B68C3F34233034AD35CD8406F
:1012880008BD00BF00380240FC17000830B583B025
:101298000446036813F0050F06D1236813F0020F04
:1012A8002ED1002003B030BD494B00221A60FFF751
:1012B80085FB0546474B1B6813F0006F06D0FFF708
:1012C8007DFB401B0228F5D90320EBE76268A36881
:1012D8001B0743EA82133F4AC2F884303C4B012281
:1012E8001A60FFF76BFB05463A4B1B6813F0006F5B
:1012F800D3D1FFF763FB401B0228F5D90320D1E7C0
:1013080000230193334B1A6C42F080521A641B6C11
:1013180003F080530193019B2F4A136843F48073B1
:101328001360FFF74BFB05462B4B1B6813F4807FBC
:1013380006D1FFF743FB401B0228F5D90320B1E78C
:10134800244B1B6F13F4407312D0E26802F440720E
:101358009A420DD01F4B1A6F22F440721F49012088
:101368000860002008601A671B6F13F0010F13D183
:10137800E36803F44072B2F5407F1ED0154A9368C3
:1013880023F4F813936013490B6FE268C2F30B025E
:1013980013430B67002085E7FFF710FB05460D4B4D
:1013A8001B6F13F0020FE3D1FFF708FB401B41F25C
:1013B80088339842F3D9032074E706498A6822F4EF
:1013C800F81223F0704323F4407313438B60DAE779
:1013D800680047420038024000700040400E474213
:1013E8002DE9F84304460268136923F44053C168A1
:1013F8000B43136183680269134342691343C2694B
:101408001A430168CB6823F4164323F00C031343F3
:10141800CB600268536923F4407381690B435361BD
:10142800C369B3F5004F60D00368B84A934200F02F
:10143800148102F58062934200F00F81FFF706FFE6
:1014480000EB800000EB80006568AD00B0FBF5F5AF
:10145800AF4FA7FB05356D092E01FFF7F7FE00EB2F
:10146800800000EB80006568AD00B0FBF5F9FFF780
:10147800EDFE00EB800000EB80006568AD00B0FB7E
:10148800F5F5A7FB05356D094FF0640808FB1595C0
:101498002D013235A7FB05356D0905F0F0053544FA
:1014A800FFF7D4FE00EB800000EB80006668B60012
:1014B800B0FBF6F6FFF7CAFE00EB800000EB8000F9
:1014C80063689B00B0FBF3F0A7FB0030400908FB02
:1014D80010684FEA081808F13208A7FB0837C7F365
:1014E800431723682F449F600DE10368874A93429E
:1014F8005BD002F58062934257D0FFF7A7FE00EB5E
:10150800800000EB800065686D00B0FBF5F5804F4A
:10151800A7FB05356D092E01FFF798FE00EB80004B
:1015280000EB800065686D00B0FBF5F9FFF78EFEF3
:1015380000EB800000EB800065686D00B0FBF5F5FE
:10154800A7FB05356D094FF0640808FB1595ED00FC
:101558003235A7FB05356D096D0005F4F87535447E
:10156800FFF774FE00EB800000EB800066687600F1
:10157800B0FBF6F6FFF76AFE00EB800000EB800098
:1015880063685B00B0FBF3F3A7FB03235B0908FB6D
:1015980013684FEAC80808F13208A7FB0837C7F3F1
:1015A800421723682F449F60ADE0FFF75FFE00EB12
:1015B800800000EB800065686D00B0FBF5F5544FC6
:1015C800A7FB05356D092E01FFF750FE00EB8000E3
:1015D80000EB800065686D00B0FBF5F9FFF746FE8B
:1015E80000EB800000EB800065686D00B0FBF5F54E
:1015F800A7FB05356D094FF0640808FB1595ED004C
:101608003235A7FB05356D096D0005F4F8753544CD
:10161800FFF72CFE00EB800000EB80006668760088
:10162800B0FBF6F6FFF722FE00EB800000EB80002F
:1016380063685B00B0FBF3F3A7FB03235B0908FBBC
:1016480013684FEAC80808F13208A7FB0837C7F340
:10165800421723682F449F6055E0FFF707FE00EB11
:10166800800000EB80006568AD00B0FBF5F5284F01
:10167800A7FB05356D092E01FFF7F8FD00EB80008B
:1016880000EB80006568AD00B0FBF5F9FFF7EEFDF3
:1016980000EB800000EB80006568AD00B0FBF5F55D
:1016A800A7FB05356D094FF0640808FB15952D015A
:1016B8003235A7FB05356D0905F0F0053544FFF710
:1016C800D5FD00EB800000EB80006668B600B0FB3B
:1016D800F6F6FFF7CBFD00EB800000EB80006368B7
:1016E8009B00B0FBF3F0A7FB0030400908FB106833
:1016F8004FEA081808F13208A7FB0837C7F3431761
:1017080023682F449F60BDE8F88300BF00100140A4
:101718001F85EB5158B310B5044690F839300BB318
:10172800242384F839302268D36823F40053D36023
:101738002046FFF755FE2268136923F4904313618E
:101748002268536923F02A0353612268D36843F45B
:101758000053D3600020E063202384F8393084F8F4
:101768003A3010BD80F83830FFF772F8D8E701201A
:101778007047000070B50D4E0D4CA41BA410002539
:10178800A54209D10B4E0C4C00F020F8A41BA41064
:101798000025A54205D170BD56F82530984701357A
:1017A800EEE756F8253098470135F2E70C1800089F
:1017B8000C1800080C18000810180008024403460A
:1017C800934200D1704703F8011BF9E7F8B500BF51
:1017D800F8BC08BC9E467047F8B500BFF8BC08BC0A
:0417E8009E46704762
:1017EC0000000000000000000102030406070809C5
:0817FC000000000001020304DB
:08180400F4E9FF7F0100000080
:04180C00AD01000822
:041810008901000842
:0C1814000024F40001000000100000009F
:04000005080004C922
:00000001FF
